:100000000C94190A0C94290A0C94290A0C94290AB4
:100010000C94290A0C94290A0C94290A0C94290A94
:100020000C94290A0C94290A0C941A0E0C94290A8F
:100030000C94290A0C94290A0C94290A0C94290A74
:100040000C94290A0C94290A0C94290A0C94290A64
:100050000C94290A0C94290A0C94290A0C94290A54
:100060000C94290A0C94290A0C94290A0C94290A44
:100070000C94290A0C94290A0C94290A0C94290A34
:100080000C94290A0C94290A0C94290A0C94290A24
:100090000C94290A0C94290A240350004F004B00A9
:1000A0004B0045004E00200043004F004E0054001E
:1000B00052004F004C004C004500520000001C0351
:1000C00048004F0052004900200043004F002E001E
:1000D0002C004C00540044002E00000004030904CE
:1000E0000902290001010080FA090400000203004E
:1000F00000000921110100012256000705020340FA
:100100000005070581034000051201000200000000
:10011000400D0F920000010102000105010905A137
:1001200001150025013500450175019510050919D6
:10013000012910810205012507463B01750495013F
:1001400065140939814265009501810126FF004649
:10015000FF0009300931093209357508950481021B
:100160000600FF0920950181020A212695089102C7
:10017000C0FFFFFFFFFFFFFFFFFFFFFFFFFFFFFFCE
:10018000FFFF1F8058D0DA6A5DBBFF6FFFEFB7DD5E
:100190002DBDFBBF7DFBBEFDFBFFFFFFFFFFFFFF94
:1001A000FFFFFFFFFFFFFFFFFFFF1F00202455B7EA
:1001B000EFFEFDFFBFFFFFFFDFDBFEFEFFFFFFEBFC
:1001C000FFFFFFFFFFFFFFFFFFFFFFFFFFFFFFFF3F
:1001D000FFFF1F001048AADEFEB76FFFF77DFF7616
:1001E000FBEED7FFEFDFF77FDFFFFFFFFFFFFFFF34
:1001F000FFFFFFFFFFFFFFFFFFFF1F002820DDFACB
:10020000DDFFFFF7FFFFFBFD57BFFD7FFBFFBFF6E5
:10021000FFFFFFFFFFFFFFFFFFFFFFFFFFFFFFFFEE
:10022000FFFF1F002090726BEFEEFEFF7EF7EF6F77
:10023000BBFDFFEDFFFEFEFDFBFFFFFFFFFFFFFF2E
:10024000FFFFFFFFFFFFFFFFFFFF0F001048ADDDC7
:10025000FFFFF7FFFFBFFDFEFE6BDBFFDFF7F7BF22
:10026000DFFFFFFFFFFFFFFFFFFFFFFFFFFFFFFFBE
:10027000FFFF0F002080D4FEFDFFFFFFFFFEFFF712
:10028000B7DFFFFFFBBFBFFAFFFFFFFFFFFFFFFF6F
:10029000FFFFFFFFFFFFFFFFFFFF0F000004A9A507
:1002A000EFDBFEBDF7FBBBBFFD76EDFEFFFFFFFD05
:1002B000FDFFFFFFFFFFFFFFFFFFFFFFFFFFFFFF50
:1002C000FFFF0F00200852DD7EFFFFFFBFDFFFFDB5
:1002D000EFBDFBBFB7FBFDEFDFFFFFFFFFFFFFFF42
:1002E000FFFFFFFFFFFFFFFFFFFF0F00004892FE31
:1002F000F5FFFFFFFFF7FE6FDFF7D7FBFFFF6F7D17
:10030000FFFFFFFFFFFFFFFFFFFFFFFFFFFFFFFFFD
:10031000FFFF06000010B4A96FF7EFFFFFFBB7FF68
:100320007BAF7EFFFBDFFFFEF7FFFFFFFFFFFFFF5F
:10033000FFFFFFFFFFFFFFFFFFFF0700202469779C
:10034000FFFEFFDDFDFEFFFBFF7DFBDF6FFFBEFB62
:10035000FFFFFFFFFFFFFFFFFFFFFFFFFFFFFFFFAD
:10036000FFFF07000000EADEEDBBFFFFDFDFFEDF7F
:10037000FEEFF77FFFFB77DFBFFFFFFFFFFFFFFF12
:10038000FFFFFFFFFFFFFFFFFFFF06000008D5EDA7
:100390005EF7FDFFFFF777FFB77FDFFEFBFFFFFE96
:1003A000FEFFFFFFFFFFFFFFFFFFFFFFFFFFFFFF5E
:1003B000FFFF01014048BA56BBDFFFFFFFFFFFFB15
:1003C000FFFDFDF7DFDFBFFDF7FFFFFFFFFFFFFFD3
:1003D000FFFFFFFFFFFFFFFFFFBFB40600106DAB85
:1003E000B57ADFFFFFAFFD6FDFB7FF7FFFFB7DF764
:1003F000FFFFFFFFFFFFFFFFFFFFFFFFFFFFFFFF0D
:10040000FF3F690D00B0F6DD6EB7FBDDF6FEBFFF06
:10041000FBFFDFFFFBFFEF7EBFFFFFFFFFFFFFFFE5
:10042000FFFFFFFFFFFFFFFFFF5F4A594048ADB2EC
:10043000F6EDFFFFFFDFFEFD7FFBFDFF6FFF7FFFA0
:10044000FFFFFFFFFFFF0FFCFFFF3FFFFFFFFFFF6F
:10045000FF9FB6AB80B0B6A76D57DDFFFFFFFF6F04
:10046000FFDFFFDBFFDFBDEDFBFFFFFFFFFF3FFF18
:10047000FFFFFFFFFFFFFFFFFF3F493601EADD4AB5
:10048000BDBFFBFFFF7FEFFFFBFFFFFFF6FFFFFEA0
:10049000BFFFFFFFFFFF3F070E061E0FFEFFFFFF20
:1004A000FFBF246D056DDB5DEBEDEEFEDFDB7DFF59
:1004B000DFFE7DFFFFFDDFFEFFFFFFFFFFFF3FE7EA
:1004C000E4E43CE7FCFFFFFFFF7F01D202F4AFB39F
:1004D000DAFFFDDFFEFFFF6FFFFFFFFFF7DF7BBBF4
:1004E000FDFFFFFFFFFF3FE7E7E43CE7FFFFFFFF04
:1004F000FFBF026C03DADED6ED6ED7FFFFFFFFFD14
:10050000FFF7FFFFBDFFFFFEDFFFFFFFFFFF3FE73E
:10051000E7E43CE73FFFFFFFFF7F01D9C6FDDDBBFE
:10052000B7FFBBFDF7BFEDFFEDFFFFDFFFFFDFFD17
:10053000FFFFFFFFFFFF0FE40FE61C0E3CFFFFFF76
:10054000FFBF00A58DF7BFB67EDD7EFFFFFEFFDF9C
:10055000FFFFEFFFF7BBBDFFFFFFFFFFFFFFFFFF49
:10056000FFFFFFFFFFFFFFFFFFFF016E61DF7BFF6C
:10057000EDF6D7DFFFFF7FFFBF7FFFFFFFFF7F6D40
:10058000FBFFFFFFFFFFFFFFFFFFFFFFFFFFFFFF7F
:10059000FF7F03B9EBFDDFBFFF6FEFFEFDBFFFFB8A
:1005A000FFFFFF7F7BFFFFFEDFFFFFFFFFFFFFFF80
:1005B000FFFFFFFFFFFFFFFFFFFF81DFD2FF7FF5A0
:1005C000B7DFFAFEBFFFF7BFFBFBFFFDEFEFB7FFA3
:1005D000FFFFFFFFFFFFFFFFFFFFFFFFFFFFFFFF2B
:1005E000FFFF036DB9BFFDFFEFBD6DFBFFFFBFFF59
:1005F000FFFFFFDFFFFF7FFDFFFFFFFFFFFFFFFFAD
:10060000FFFFFFFFFFFFFFFFFFFF03DAF4F7EFDA63
:100610007E7FDFB7FFF7FFFFBFB7FFFFFB7FFFEE78
:100620007FFFFFFFFFFFFFFFFFFFFFFFFFFFFFFF5A
:10063000FFFF85B7DAFF7FF7E9F7DBFEF7FFFFBDC6
:10064000FFFFFFFFFFFEEF7FFBFFFFFFFFFFFFFF4F
:10065000FFFFFFFFFFFFFFFFFFFFC733FAFFFFAB07
:10066000D7EEB5FDFFFFFEFFFD7FFB7FFFF7BFFE6F
:10067000FFFFFFFFFFFFFFFFFFFFFFFFFFFFFFFF8A
:10068000FFFF673FFDFDBD5DBEBDDFEEFFFFFFFF6E
:10069000FFFD7FFFDBFF7EFBBFFFFFFFFFFFFFFFD5
:1006A000FFFFFFFFFFFFFFFFFFFFAF9FEEBFFFF664
:1006B000EADBFB7B7FFFDFFDFFFFFEEFFFFFFFFFBE
:1006C000FFFFFFFFFFFFFFFFFFFFFFFFFFFFFFFF3A
:1006D000FFFF4F9AFDFFEFAB55FFB7FFEFEFFF7F37
:1006E000FBDFFDFFFFDFB7DEF7FFFFFFFFFFFFFFD1
:1006F000FFFFFFFFFFFFFFFFFFFF1F947FFFFF2DA7
:10070000FBF66FFFFFFFFBFFBFFFFB7FFFFDFFFD62
:10071000FFFFFFFFFFFFFFFFFFFFFFFFFFFFFFFFE9
:10072000FFFF0F88F6EFF6DBD6DFFDEDFFFFFFEFF3
:10073000FFFDEFFFFBFF7FFFFFFFFFFFFFFFFFFF5F
:10074000FFFFFFFFFFFFFFFFFFFF1F62FFFF5F577E
:1007500029FDDFFEFE7FFFFFFDFFFEF7BFFFBDFBB4
:10076000FEFFFFFFFFFFFFFFFFFFFFFFFFFFFFFF9A
:10077000FFFF1FC0FFFFBF9FF66AFDFFFFFF7FFF68
:10078000FFFFFBFFFFBFFFFEEFFFFFFFFFFFFFFFCE
:10079000FFFFFFFFFFFFFFFFFFFF1FC0EEFFFFFE9A
:1007A000CABFEBEDFFF7FFFFFFDFF7BFFFF7DFFF8C
:1007B000FFFFFFFFFFFFFFFFFFFFFFFFFFFFFFFF49
:1007C000FFFF1F60FFEE76FBBDEDB7FFBFFFFF7FB2
:1007D000FFFEFFFFFDFF7FEFFFFFFFFFFFFFFFFFBC
:1007E000FFFFFFFFFFFFFFFFFFFF1FE0FFFFFFED2A
:1007F0007735DFFFFFFFFBFFFFFFF7FFBFFFFFFEC8
:10080000FDFFFFE7FCFFFFFFFF1FFFFCFFFFFFFFF8
:10081000FFFF1FD0FEFFDFDFEEDB7AFBFFFFFFF7FE
:10082000FFFFEFBBFFFFF7FFFFFFFFE7FCFFFFFF4F
:10083000FF3FFFFCFFFFFFFFFFFF1F68F77F7BBB52
:100840005FF7EDBFFB7FBFFFAFFBFFFFFFFFBEFD0D
:10085000BFFFFFE70CFE0F0EE63C0FFC0F0EE40C93
:10086000FEFF1FF0FFFFEFF6FDAE77FFFFFFFFFF7C
:10087000FFFFF7FFF7EDFFDEFFFFFF07E4FCE7E414
:10088000E43CE7FCC7E7E4E4FCFF0FA8FFFEB7ADDC
:10089000B57BFBF6FFEFFFFF7F7FFFBFFFFFFFFF93
:1008A000F7FFFFE704FCE7E7E43CE7FC0FE64C0654
:1008B000FCFF1F74FFDF5FDBEEDFDDFFFFFFFFFFED
:1008C000FFFAEFFFFFFFDFFEFFFFFFE7E4FFE7E7D1
:1008D000E43CE7FC7FE41CE7FFFF0FE8FBFFAF6AA7
:1008E0007FFBFFFFFFFEF7FFFFFFFFFFFFFFFFF7AD
:1008F000FFFFFFE70CFE0F0C0E1C0EFC070EBC0FDB
:10090000FEFF0F48DFFF7FB5D96DBBFDFFFFFFF78F
:100910007FEDF7BBEFFE7DFFFFFFFFFFFFFFFFFF58
:10092000FFFFFFFFFFFFFFFFFFFF07B4FFFBBFAAB3
:10093000BBFFF7FFFFFFFFFFFFFBFFFFFFBFFFFE58
:10094000FEFFFFFFFFFFFFFFFFFFFFFFFFFFFFFFB8
:10095000FFFF0FE0FD7F7F49EDB6FFEFFFFFFFFEDA
:10096000FEFFFFFFFFFFFFFFDFFFFFFFFFFFFFFFB8
:10097000FFFFFFFFFFFFFFFFFFFF07C0B6FFBFB591
:10098000766FDBFDFEFFFFFFFFF6DBDFFFFFDFFD26
:10099000FFFFFFFFFFFFFFFFFFFFFFFFFFFFFFFF67
:1009A000FFFF07A47FED774AEDFDFFFFDFFFFFDFCD
:1009B000FFFFFFFFFBFFFFFFFFFFFFFFFFFFFFFF4B
:1009C000FFFFFFFFFFFFFFFFFFFF0768EFFBFF9247
:1009D000AADBEEFFFF7FF7FFFFFBFFEDFFFB7FFFD3
:1009E000FFFFFFFFFFFFE7FFFFFFFF3FFEFFFFFFF0
:1009F000FFFF07D4FEB6BFB554EF7DFFFFFFFFFF3B
:100A0000BFF7FDFFFFFFFFEFFFFFFFFFFF9FE7FFC8
:100A1000FFFFFF9FFCFFFFFFFFFF0FD4FBEF5DA376
:100A200075BDFFFFFFF7FFFEFFFFDFFF7F7FF7FED4
:100A3000FEFFFFFF0F06060E060EFE9F070E46FE88
:100A4000FFFF07A8BEEFEF16ADDBF6FBFFFFFFFFD2
:100A5000FFFBFFFBFFFFFFFFEFFFFFFFE79CE7E46C
:100A6000E4C4FF0FE6E404FCFFFF0F58BFB6BF6D00
:100A700052EDDFBFFFFFFFFFFFFFFFEFFEFF7FFF36
:100A8000FFFFFFFFE79CE704E40FFE9FE7E7A4FCFE
:100A9000FFFF0FF056FFF6CBB4767BFFFFFFFFFFA3
:100AA000FFF7FEFDFFFFFFFFFFFFFFFFE79CE4E412
:100AB000E77FFC9FE7E7E4FCFFFF1F00A8DD6F9FD7
:100AC000CAEDFEFBF7FFFFFFFFFDEFFFDFFFFFFBC0
:100AD000FFFFFFFF0F3EE60CE607FE9FE70FE6FC79
:100AE000FFFF0F0090FBBE7555DBEFFFFFFEDFFF42
:100AF000FFFFFFFBFFEFDFFFFFFFFFFFFFFFFFFF3A
:100B0000FFFFFFFFFFFFFFFFFFFF1F0848EFFBFB9B
:100B1000AAB6BDEFFFFFFDB7FBFFFFDFFFFFFBFF47
:100B2000FFFFFFFFFFFFFFFFFFFFFFFFFFFFFFFFD5
:100B3000FFFF0F00A8B6B7CF55EDF67EFFBFFFFF52
:100B4000FFBE7FFFFFFFFF7EF7FFFFFFFFFFFFFFFF
:100B5000FFFFFFFFFFFFFFFFFFFF1F00407D7FBB89
:100B6000AFDADFFFFFFFFF7FFFFFFFFBFFFFFFFFAE
:100B7000FFFFFFFFFFFFFFFFFFFFFFFFFFFFFFFF85
:100B8000FFFF1F00D0EEED7F2DDBFEDBFFFFFFFF41
:100B9000FFF7F7FFF7FDFFFFFFFFFFFFFFFFFFFF7F
:100BA000FFFFFFFFFFFFFFFFFFFF0F0088BABFD56A
:100BB00076B5B5FFEFFFFFEFFBFFFFFFFFFFFFFF86
:100BC000FFFFFFFFCFF3FFFFFFFFFFFFFFFFFFFF71
:100BD000FFFF1F0010F5F6BF5DDAFFFEFFFDFF7F90
:100BE000FFFFFFFEFF7FFFFFFFFFFFFFCFFFFFFFC6
:100BF000FFFFFFFFFFFFF9FFFFFF1F00526E7FDBCC
:100C0000BA75FBEFFEFFFFFF7FFFFFEFFFFFFFF770
:100C1000FF7FE4E0C0F1E060E0E07FE0E060E0E082
:100C2000FFFF1F00A4DAEBBF75ED6FFFFFFFFFFEB4
:100C3000F7FFFFFFFFFFDFFFDE7F404ECE734E4E1C
:100C40004ECE7F4E4EFC79FCFFFF1F004AEDDEB614
:100C5000CDAAFEFBFFFFDFDFFFFFF7FFFFFFFFFF78
:100C60007F7F4A40CE734E7E7EC07F4ECEE0F9E05D
:100C7000FFFF1F0054BBF76D5575BB7FF7DFFBFF10
:100C8000EEEFFFFFEFF7FFFFFF7F4E7ECE734E7E4E
:100C90007EFE7F4ECEC7C9C7F3FF3F00A8767BBF5D
:100CA0006ADBF7DFFFFEFFFFFFFEFFFDFFFFFFFF39
:100CB000577FCEE0C0E1E040FEE07FE060E063E02F
:100CC000F3FF3F00E2DDFFDFD56A7FFBFFFFFFFBA5
:100CD000FFFFFFFFFFFFFBFFAFFFFFFFFFFFFFFF78
:100CE000FFFF7FFEFFFFFFFFF9FF3F0048FFB6FB5E
:100CF0004BB7EDFFFFFFFFDFEDFFFFFFFFFFFFDD66
:100D00007EFFFFFFFFFFFFFFFFFFFFFFFFFFFFFF74
:100D1000FFFF3F00FAEAFFFFB7ECFBFEEEFFFFFF2D
:100D2000FFFFFFFFFFFFFFFFD7FFFFFFFFFFFFFFFB
:100D3000FFFFFFFFFFFFFFFFFFFF7F00E9FFFFFF58
:100D4000A5DDDEEFFFEFFFFBFFFFFBFFFEFEFFFF7A
:100D5000BFFFFFFFFFFFFFFFFFFFFFFFFFFFFFFFE3
:100D6000FFFF7F0056BFFDFFAFBAF7FDFFFD7DDF40
:100D7000FEFFFFDFFFBFFFFFFFFFFFFFFFFFFFFFE4
:100D8000FFFFFFFFFFFFFFFFFFFF7F40FEEAFFDFE8
:100D900056F7FDFFFDFFFFFFFFFFFFFBFFFFFFFF1C
:100DA000FB7FFEFFFFFFFFFFFF7FFEF3FFFFFFF173
:100DB000E3FF7F80FFFFFFFBADAA6FEFBFFFFFFFE9
:100DC000FFFFFFFFFFFFEFFFFF7FFEFFF9FFFFFFCA
:100DD000F97FFEFFFFFFFFF3C9FF7F803DFDFFBFEF
:100DE000AF76FBFEFFFFEFBDFFFFFFFFFFFFFFDD65
:100DF000DF7F604EE07FE060E07FE071E4E0E0F301
:100E0000F9FF7F807EED777F5BFDDD7FF77FFFFF62
:100E1000DDDFFFFFFFFFFFFFFF7F4ECEF97F4ECEEE
:100E2000F97FCE73407CCEF3E0FFFF40EBBBFDDBF0
:100E3000CDAAF7EDFFEFFFFFFFFBFFFF7FFFFFFFF7
:100E4000FE7F4ECEF97F4ECEF97FCE73CA60C0F3DF
:100E5000F9FFFF0095DEDFFF9776BFFFFFFFBFFBC7
:100E6000FFFFFFFFFFEFFDFFF77F4ECEC97F4ECEA6
:100E7000C97FCE73CE47FEF3F9F3FF805875BBB63A
:100E80006EEDEDFFFFFEFFBFFFFFFFFFFFFFFFFF68
:100E90007F7FE0C0E37FCEE0E37FCE614EE0E0E124
:100EA000F9F3FF00A0AAF5ED95DA7BEDFBFFF7FF64
:100EB000FDFFFFFFFFFFBFF7FFFFFFFFFFFFFFFF8C
:100EC000FFFFFFFFFFFFFFFFFFFFFF4000B56DDFEC
:100ED0002E6DDFFFFFFFFFFFFFFF7FFFFFFFFF7FA5
:100EE000EFFFFFFFFFFFFFFFFFFFFFFFFFFFFFFF22
:100EF000FFFFFF414069DB76DBF4F6FEFFFFFF7D7D
:100F0000FFFFFFFFFFFFFFFFFFFFFFFFFFFFFFFFF1
:100F1000FFFFFFFFFFFFFFFFFFFFFF01A096B6BB34
:100F200097EEFB77BFDFFFFFDFFFFFFFFFFFFFFF56
:100F30007FFFFFFFFFFFFFFFFFFFFFFFFFFFFFFF41
:100F4000FFFFFF40006D6DEF36596FFFFFFFBFFFE2
:100F5000FFFFFFFF7FFFFDF7F6FFFFFFFFFFFFFF34
:100F6000FFFFFFFFFFFFFFFFFFFFFF0150A9B5DD00
:100F70006DFBFEFEFFFFFBBFFFFFFFFFFFDFBFFFBD
:100F8000FFFFFFFFFFFFFFFFFFFFFFFFFFFFFFFF71
:100F9000FFFFFF01A0526ABBDBB6B5FFFFFFFFFFFB
:100FA000FFF7FFBFFFFFFFFFBFFFFFFFFFFFFFFFD9
:100FB000FFFFFFFFFFFFFFFFFFFFFF0100D6D67619
:100FC00097F4EFFFF7FDFFFFFFFFFDFFFFFFFFDFE0
:100FD000F7FFFFFFFFFFFFFFFFFFFFFFFFFFFFFF29
:100FE000FFFFFF030029AD6D6DABFDEDFFFFFF7F40
:100FF000EFFFFFFFFFFFFFFBFFFFFFFFFFFFFFFF15
:10100000FFFFFFFFFFFFFFFFFFFFFF0300D2DADA62
:10101000BBDEB6FFFFBFFFFFFFFFFFFFEFFFF7FFE6
:10102000FEFFFFFFFFFFFFFFFFFFFFFFFFFFFFFFD1
:10103000FFFFFF038024B56DDBFAFFFFFFFFFFFB1F
:10104000FFFFFFFFFFF77FFFEFFFFFFFFFFFFFFF48
:10105000FFFFFFFFFFFFFFFFFFFFFF0700AC65B7CC
:10106000B655EDFFFFFF7FFFFFFFFFFBFFFFFEFF1A
:101070007FFFFFFFFFFFFFFFFFFFFFFFFFFFFFFF00
:10108000FFFFFF0300D9DEDA6DBF7BFFDFFBF7FF59
:10109000FFFFFFFFFFFFFFEFFEFFFFFFFFFFFFFF71
:1010A000FFFFFFFFFFFFFFFFFFFFFF0780D2BF6DC6
:1010B000DBFAFEFFFDFFFFFFFFFFFFFFFFFFFFFF6C
:1010C000F7FFFFFFFFFFFFFFFFFFFFFFFFFFFFFF38
:1010D000FFFFFF0700AA6AB7B7D5F7FFFFFFFFFFC3
:1010E000FFFFFFFFFFFFDFFFBFFFFFFFFFFFFFFF70
:1010F000FFFFFFFFFFFFFFFFFFFFFF0F0069F77E0E
:10110000ED7FDFFFFF7FFFFFFFFFFFFFFFFEFFDD44
:10111000FEFFFFFFFFFFFFFFFFFFFFFFFFFFFFFFE0
:10112000FFFFFF0F00C45EAB5BFBFEFFFFFFFFFF97
:10113000FFFFFFFFFFDFFDFFFFFFFFFFFFFFFFFFE1
:10114000FFFFFFFFFFFFFFFFFFFFFF0F0092B56DE7
:10115000BF6DFBEFFFFEEFFFFFFFFFFFF7FFFFFF9E
:10116000B7FFFFFFFFFFFFFFFFFFFFFFFFFFFFFFD7
:10117000FFFFFF1F0068FB77F5DFFFFFDFEFFFFFDB
:10118000FFFFFFFFFFFFDFF7FFFFFFFFFFFFFFFF97
:10119000FFFFFFFFFFFFFFFFFFFFFF1F00A44EDD6C
:1011A0005BFBFFFFFBFFFFFFFFFFFFFFFFFFFF7F7B
:1011B000FFFFFFFFFFFFFFFFFFFFFFFFFFFFFFFF3F
:1011C000FFFFFF3F0050BDBBBF6DEFFFFFFFFDFF07
:1011D000FFFFFFFFFFFFFDFEDBFFFFFFFFFFFFFF46
:1011E000FFFFFFFFFFFFFFFFFFFFFF3F8049F3F718
:1011F000F6FFFFFDFFFF7FFFFFFFFFFFFFDDFFEFBC
:10120000FFFFFFFFFFFFFFFFFFFFFFFFFFFFFFFFEE
:10121000FFFFFF7F00894EDD6FDBFDFFFFFFFFFF5C
:10122000FFFFFFFFFEFFEFFFFEFFFFFFFFFFFFFFE0
:10123000FFFFFFFFFFFFFFFFFFFFFF7F40A6BCFF99
:10124000DFF6FF7FFF77F7FFFFFFFFFFBFFFFFFF27
:10125000EFFFFFFFFFFFFFFFFFFFFFFFFFFFFFFFAE
:10126000FFFFFFFF406BF3EDF6BFEFFFFFFFFFFF58
:10127000FFFFFFFFFFFF7DDBFFFFFFFFFFFFFFFF24
:10128000FFFFFFFFFFFFFFFFFFFFFFFF8096D7FE7F
:101290006FFBFDFF7FFFFFFFFFFFFFFFFFFFFFFF74
:1012A000FDFFFFFFFFFFFFFFFFFFFFFFFFFFFFFF50
:1012B000FFFFFFFFA12AEDF7DBEE7FF7FFDFFDFF6A
:1012C000FFFFFFFFFFDFEFFF6FFFFFFFFFFFFFFFEE
:1012D000FFFFFFFFFFFFFFFFFFFFFFFF43DDBA7FC1
:1012E000F77FFBFFEFFFFFFFFFFFFFFFFFFFFDDFCC
:1012F000FFFFFFFFFFFFFFFFFFFFFFFFFFFFFFFFFE
:10130000FFFFFFFFA3ED77FFDEF6EDFFFFFBBFFF63
:101310007FFFFFFFFFFDFFFEFEFFFFFFFFFFFFFF61
:10132000FFFFFFFFFFFFFFFFFFFFFFFF4F5BFDDB47
:101330006DBF7F7FFF7FFFFFFFFFFFFFEFBFFFF767
:10134000B7FFFFFFFFFFFFFFFFFFFFFFFFFFFFFFF5
:10135000FFFFFFFFCFF6EEBFFBFBFBFBFFFFF7FF3F
:10136000FFFFFFFFFFFFF7FFFFFFFFFFFFFFFFFF95
:10137000FFFFFFFFFFFFFFFFFFFFFFFFBFFDDF7668
:10138000D7DEEEFF77DBFFFFFFFFFFFFFFFFBFBFF3
:10139000FDFFFFFFFFFFFFFFFFFFFFFFFFFFFFFF5F
:1013A000FFFFFFFFFF6F77EBBEFFBDFFFFFFFFFFFC
:1013B000FFFFFFFFFFDDFEFDEFFFFFFFFFFFFFFF72
:1013C000FFFFFFFFFFFFFFFFFFFFFFFFFFF7BDDF97
:1013D000DABBF7DDFEFFFDFFFFFFFFFFFFFFF7EFCB
:1013E0007FFFFFFFFFFFFFFFFFFFFFFFFFFFFFFF8D
:1013F000FFFFFFFFFF8FDBB677DFFEFFDFEFFFFFB3
:10140000FFFFFFFFFFFFFF7FFFFFFFFFFFFFFFFF6C
:10141000FFFFFFFFFFFFFFFFFFFFFFFFFF5FF66D17
:10142000FBFDADFFFFFEFFFFFFFFEFFFDFF7BEFBA2
:10143000DB0011241FBECFEFD0E2DEBFCDBF21E025
:10144000A0E0B1E001C01D92A032B207E1F774D173
:101450005EC60C94000084B7877F84BF0FB6F894F3
:10146000A895809160008861809360001092600070
:101470000FBE90E080E80FB6F894809361009093DF
:1014800061000FBEBCC30895089542E360EC82E0A2
:10149000EAD242E361EC81E0E6C20895CF93DF93A4
:1014A000EC0198E0FE01292F11922A95E9F780E8D6
:1014B0008B838C838D838E839A8380910801909196
:1014C00009011816190674F488E0EBE0F1E0DE017A
:1014D00001900D928A95E1F78091080190910901A0
:1014E0000197DBC080910A01833009F465C020F4C4
:1014F000813071F150F05EC0853009F485C008F488
:1015000066C0863009F4CDC08DC0809106019091EF
:1015100007018536910544F01092070110920601EB
:1015200081E080930A013CC08931910519F0823332
:10153000910521F488819981806330C08B349105B5
:1015400019F08436910561F588819981846026C0FF
:1015500080910601909107018A3F910581F41092D4
:1015600007011092060110920501109204011092D9
:1015700003011092020182E080930A0102C01B82E3
:101580001C8280910601909107018B34910519F01E
:101590008639910529F4888199819160998388839E
:1015A0008091060190910701019690930701809325
:1015B000060138C084E034C080910201909103019B
:1015C0008737910514F485E02BC086E029C020916F
:1015D0000201809104019091050120FF04C026E0E2
:1015E0002A83019703C022E02A8301969093050184
:1015F00080930401809104019091050101978E333D
:10160000914068F083E00CC084E08A8380910201FD
:10161000909103010196909303018093020182E06F
:1016200080930A0180910A01823068F1809104015F
:1016300090910501209102013091030148E2429FFF
:10164000F001439FF00D11249C0197FF02C0295F18
:101650003F4F43E0359527954A95E1F7E20FF31F99
:10166000EF58FE4FE491F0E068E070E029D502C049
:10167000F595E7958A95E2F7E0FF05C088819981A5
:1016800084609983888388E0FE01ABE0B1E001903B
:101690000D928A95E1F782E090E0909309018093A2
:1016A0000801DF91CF910895CF93DF93CDB7DEB7D7
:1016B00028970FB6F894DEBF0FBECDBF80911701FB
:1016C000843089F582E08093E9008091E80082FF10
:1016D00012C08091E80085FF09C040E050E067E05B
:1016E00070E0CE010196B8D08111F7CF8091E8006B
:1016F0008B778093E80081E08093E9008091E80097
:1017000080FF11C0CE010196C9DE40E050E068E0E4
:1017100070E0CE01019656D08111F7CF8091E8009C
:101720008E778093E80028960FB6F894DEBF0FBE40
:10173000CDBFDF91CF9108958EDE7894B5DFA6D42A
:10174000FDCF292F332723303105E1F058F4213024
:10175000310599F02230310569F589E290E020EEFB
:1017600030E02CC02132310501F12232310511F572
:1017700086E590E02BE131E021C082E190E029E0B4
:1017800031E01CC099278130910549F028F002977B
:1017900089F4E8E9F0E005C0ECEDF0E002C0EEEB22
:1017A000F0E0849190E09F0109C089E090E022EF91
:1017B00030E004C080E090E020E030E0FA013183C6
:1017C00020830895CF92DF92EF92FF920F931F93A1
:1017D000CF93DF93EC018B017A0199D1811133C052
:1017E000E114F10439F0F70180819181081B190B94
:1017F000C80FD91FC12CD12C0115110519F18091E9
:10180000E80085FD16C08091E8008E778093E8009F
:101810003DD4E114F10449F0F70180819181C80EB3
:10182000D91ED182C08285E00EC071D1882321F3F8
:101830000AC089918093F10001501109FFEFCF1A7E
:10184000DF0ADACF80E0DF91CF911F910F91FF90F7
:10185000EF90DF90CF900895CF92DF92EF92FF92BA
:101860000F931F93CF93DF93EC018B017A014FD13C
:10187000811133C0E114F10439F0F70180819181C5
:10188000081B190BC80FD91FC12CD12C011511052C
:1018900019F18091E80085FD16C08091E8008B77F2
:1018A0008093E800F3D3E114F10449F0F70180815B
:1018B0009181C80ED91ED182C08285E00EC027D189
:1018C000882321F30AC08091F10089930150110906
:1018D000FFEFCF1ADF0ADACF80E0DF91CF911F91BF
:1018E0000F91FF90EF90DF90CF90089520911E010F
:1018F00030911F012617370748F06115710539F43B
:101900002091E8002E772093E80001C0B901FC0186
:1019100020E06115710571F1809117018823E9F1CB
:101920008530E9F18091E80083FD3BC08091E800BB
:1019300082FD2DC08091E80080FFEBCF8091F20006
:101940009091F3006115710551F08034910538F4E0
:1019500021912093F100615071090196F3CF21E0AC
:101960008034910509F020E08091E8008E77809323
:10197000E800CFCF2111D0CF0AC080911701882372
:1019800061F0853061F08091E80083FD0AC08091AC
:10199000E80082FFF2CF80E0089582E0089583E0BE
:1019A000089581E0089520911E0130911F012617AE
:1019B000370748F06115710539F42091E8002E775A
:1019C0002093E80001C0B901FC0120E06115710518
:1019D00089F180911701882309F43FC0853009F40B
:1019E0003EC08091E80083FD3CC08091E80082FD0C
:1019F0002EC08091E80080FFE9CF8091F2009091A5
:101A0000F3006115710559F08034910540F424917B
:101A10002093F1003196615071090196F2CF21E0D7
:101A20008034910509F020E08091E8008E77809362
:101A3000E800CCCF2111CDCF0AC0809117018823B7
:101A400061F0853061F08091E80083FD0AC08091EB
:101A5000E80082FFF2CF80E0089582E0089583E0FD
:101A6000089581E00895982F973068F59093E900E4
:101A7000981739F07091EC002091ED005091F00032
:101A800003C0242F762F50E021FD02C09F5FECCFD2
:101A90003091EB003E7F3093EB003091ED003D7FC5
:101AA0003093ED003091EB0031603093EB00709398
:101AB000EC002093ED005093F0002091EE0027FD04
:101AC000E5CF80E008958F708093E90081E008956C
:101AD0008091180187FF11C08091E80082FD05C048
:101AE000809117018111F8CF11C08091E8008B77A8
:101AF0000BC080911701882349F08091E80080FF96
:101B0000F8CF8091E8008E778093E80008952091C7
:101B1000E4003091E50095E64091EC00842F81705F
:101B200040FF23C08091E80080FD1DC08091170117
:101B3000882399F0853099F08091EB0085FD11C0E4
:101B40004091E4005091E5002417350729F39150A6
:101B500011F09A01E1CF84E0089582E0089583E0D6
:101B6000089581E0089580E008954091E80042FFE3
:101B7000DDCF08950F931F93CF93DF934ED055D0B1
:101B8000C8EDD0E088818F778883888180688883DA
:101B900088818F7D8883E7EDF0E080818068808395
:101BA00019BC109217011092130110921501109296
:101BB000140100EE10E0F80180818B7F8083888122
:101BC0008160888342E360E080E04DDFE1EEF0E099
:101BD00080818E7F8083E2EEF0E08081816080836F
:101BE000808188608083F80180818E7F80838881F6
:101BF00080618883DF91CF911F910F910895E8ED67
:101C0000F0E080818F7E8083E7EDF0E0808181606D
:101C1000808381E080931601ADCFE8EDF0E0808114
:101C20008C7F80831092E20008951092DA00109267
:101C3000E10008951F920F920FB60F9211240BB678
:101C40000F922F933F934F935F936F937F938F9355
:101C50009F93AF93BF93EF93FF938091E10082FF37
:101C60000AC08091E20082FF06C08091E1008B7F74
:101C70008093E1000AD28091DA0080FF1DC080913C
:101C8000D80080FF19C08091DA008E7F8093DA003F
:101C90008091D90080FF0CC084E189BD86E189BDB7
:101CA00009B400FEFDCF81E080931701ECDB04C096
:101CB00019BC10921701E8DB8091E10080FF18C089
:101CC0008091E20080FF14C08091E2008E7F8093BB
:101CD000E2008091E20080618093E2008091D80070
:101CE00080628093D80019BC85E080931701CDD124
:101CF0008091E10084FF2FC08091E20084FF2BC01F
:101D000084E189BD86E189BD09B400FEFDCF8091E3
:101D1000D8008F7D8093D8008091E1008F7E8093E2
:101D2000E1008091E2008F7E8093E2008091E200EA
:101D300081608093E20080911301882311F084E098
:101D400007C08091E30087FD02C081E001C083E00D
:101D5000809317019AD18091E10083FF22C0809186
:101D6000E20083FF1EC08091E100877F8093E10045
:101D700082E080931701109213018091E1008E7F21
:101D80008093E1008091E2008E7F8093E200809159
:101D9000E20080618093E20042E360E080E063DE85
:101DA00074D1FF91EF91BF91AF919F918F917F91EE
:101DB0006F915F914F913F912F910F900BBE0F90BC
:101DC0000FBE0F901F9018951F93CF93DF93CDB741
:101DD000DEB7AA970FB6F894DEBF0FBECDBFE8E11D
:101DE000F1E08091F100819321E0E032F207C9F740
:101DF00054DB8091E80083FF30C1809118019091FD
:101E00001901953009F483C030F49130A9F168F0DC
:101E1000933091F122C1983009F4EFC0993009F460
:101E2000FBC0963009F019C194C0803821F0823887
:101E300009F013C108C080911401909115019923F4
:101E400089F082600FC080911C018F70873008F08C
:101E500004C18093E9008091EB0085FB882780F91D
:101E60001092E9009091E800977F9093E8008093AA
:101E7000F1001092F100CCC0282F2D7F09F0EDC0A9
:101E8000882319F0823061F0E8C080911A01813016
:101E900009F0E3C0933009F080E0809315012EC073
:101EA00080911A0181112AC080911C018F702FEF3F
:101EB000280F263008F0D1C08093E9002091EB0074
:101EC00020FF1CC0933021F48091EB00806214C08D
:101ED0009091EB0090619093EB0021E030E0A9013C
:101EE00002C0440F551F8A95E2F74093EA00109212
:101EF000EA008091EB0088608093EB001092E9008B
:101F00008091E800877F8093E800E2DDA6C0811120
:101F1000A4C010911A011F778091E3008078812B73
:101F20008093E3008091E800877F8093E800D0DD14
:101F30008091E80080FFFCCF8091E300806880936F
:101F4000E300111102C082E001C083E08093170119
:101F500084C08058823008F080C080911A0190912E
:101F60001B018C3D53E0950771F583E08A838AE27B
:101F700089834FB7F894DE01139620E03EE051E2EA
:101F8000E32FF0E050935700E49120FF03C0E29567
:101F9000EF703F5FEF708E2F90E0EA3010F0C79641
:101FA00001C0C0968D939D932F5F243149F74FBF99
:101FB0008091E800877F8093E8006AE270E0CE01BC
:101FC000019694DC14C060911C0170911D01AE015A
:101FD0004F5F5F4FB6DBBC01892B09F43EC0909187
:101FE000E800977F9093E80089819A81DCDC8091FA
:101FF000E8008B778093E80030C0803871F58091DD
:10200000E800877F8093E800809113018093F100BE
:102010008091E8008E7777CF81111FC080911A01DF
:1020200090911B0199270297C4F48091E800877F63
:102030008093E80080911A018093130149DD80911B
:102040001301811106C08091E30087FD02C081E089
:1020500001C084E08093170118DA8091E80083FFC3
:102060000AC08091E800877F8093E8008091EB00B0
:1020700080628093EB00AA960FB6F894DEBF0FBE85
:10208000CDBFDF91CF911F9108950895CF93809197
:102090001701882399F0C091E900CF709091EC006E
:1020A000892F817090FD80E8C82B1092E900809103
:1020B000E80083FD89DECF70C093E900CF910895D9
:1020C00097FB072E16F4009406D077FD08D00BD0AE
:1020D00007FC05D03EF4909581959F4F089570952B
:1020E00061957F4F0895AA1BBB1B51E107C0AA1F32
:1020F000BB1FA617B70710F0A61BB70B881F991FA9
:102100005A95A9F780959095BC01CD010895F89452
:02211000FFCFFF
:00000001FF
